:100000000C945D000C9485000C9485000C94850084
:100010000C9485000C9485000C9485000C9485004C
:100020000C9485000C9485000C9485000C9485003C
:100030000C9485000C9485000C9485000C9485002C
:100040000C94BB030C9485000C9489030C946303FB
:100050000C9485000C9485000C9485000C9485000C
:100060000C9485000C9485000000000024002700FB
:100070002A0000000000250028002B0004040404CE
:100080000404040402020202020203030303030342
:10009000010204081020408001020408102001021F
:1000A00004081020000000080002010000030407FB
:1000B0000000000000000000050411241FBECFEF67
:1000C000D8E0DEBFCDBF12E0A0E0B1E0E0E6FDE0A9
:1000D00002C005900D92AE30B107D9F725E0AEE031
:1000E000B2E001C01D92AA37B207E1F710E0CDE5FA
:1000F000D0E004C02197FE010E947D06CC35D107D7
:10010000C9F70E948A040C94AE060C940000E1EB3F
:10011000F0E02491EDE9F0E09491E9E8F0E0E49179
:10012000EE2309F43BC0222339F1233091F038F457
:100130002130A9F0223001F524B52F7D12C02730DF
:1001400091F02830A1F02430B9F4209180002F7D67
:1001500003C0209180002F77209380000DC024B52C
:100160002F7724BD09C02091B0002F7703C02091C4
:10017000B0002F7D2093B000F0E0EE0FFF1FEE588F
:10018000FF4FA591B4912FB7F894EC91811103C062
:1001900090959E2301C09E2B9C932FBF0895AC0188
:1001A0001092BD0220910D0580910C05FA01BF014E
:1001B000641B750B91E03091BD02321390E03081E9
:1001C000321719F03093BD0204C09923D9F310926D
:1001D000BD023191311104C09111E9CFCB010895D5
:1001E0003813E5CFF9CFCF92DF92EF92FF920F93C2
:1001F0001F93CF93DF936C017A018B01C0E0D0E0B5
:10020000CE15DF0589F0D8016D918D01D601ED91F4
:10021000FC910190F081E02DC6010995892B11F424
:100220007E0102C02196ECCFC701DF91CF911F91D3
:100230000F91FF90EF90DF90CF900895FC01918D8A
:10024000828D981761F0828DDF01A80FB11D5D9638
:100250008C91928D9F5F9F73928F90E008958FEFA6
:100260009FEF0895FC01918D828D981731F0828D5A
:10027000E80FF11D858D90E008958FEF9FEF0895B1
:10028000FC01918D228D892F90E0805C9F4F821B15
:1002900091098F73992708958BE192E00E944001A4
:1002A00021E0892B09F420E0822F0895FC01848D40
:1002B000DF01A80FB11DA35ABF4F2C91848D90E090
:1002C00001968F739927848FA689B7892C93A0896B
:1002D000B1898C9180648C93938D848D981306C022
:1002E0000288F389E02D80818F7D80830895EF92CD
:1002F000FF920F931F93CF93DF93EC0181E0888FE0
:100300009B8D8C8D981305C0E889F989808185FDC6
:1003100024C0F62E0B8D10E00F5F1F4F0F731127B7
:10032000E02E8C8DE8120CC00FB607FCFACFE889DE
:10033000F989808185FFF5CFCE010E945601F1CF6A
:100340008B8DFE01E80FF11DE35AFF4FF0820B8FFA
:10035000EA89FB898081806207C0EE89FF8960831A
:10036000E889F98980818064808381E090E0DF9171
:10037000CF911F910F91FF90EF900895CF93DF934E
:10038000EC01888D8823C9F0EA89FB89808185FD8D
:1003900005C0A889B9898C9186FD0FC00FB607FCEE
:1003A000F5CF808185FFF2CFA889B9898C9185FF2F
:1003B000EDCFCE010E945601E7CFDF91CF91089596
:1003C00080E090E0892B29F00E944C0181110C946F
:1003D000000008953FB7F89480910F0290911002A9
:1003E000A0911102B091120226B5A89B05C02F3F23
:1003F00019F00196A11DB11D3FBFBA2FA92F982F4B
:100400008827820F911DA11DB11DBC01CD0142E0C5
:10041000660F771F881F991F4A95D1F70895009797
:1004200069F0FC0101900020E9F73197AF01481B0A
:10043000590BBC018BE192E00C94F30080E090E05A
:100440000895CF93DF930E940F02EC0181E191E0C8
:100450000E940F028C0F9D1FDF91CF9108958F9204
:100460009F92AF92BF920F931F93CF93DF93CDB71D
:10047000DEB7A1970FB6F894DEBF0FBECDBF19A2AD
:10048000423008F44AE08E010F5D1F4F842E912CFC
:10049000A12CB12CA50194010E945B06E62FB901A5
:1004A000CA0101501109EA3014F4E05D01C0E95CB1
:1004B000D801EC93232B242B252B61F7C8010E9434
:1004C0000F02A1960FB6F894DEBF0FBECDBFDF912D
:1004D000CF911F910F91BF90AF909F908F900895F3
:1004E0000F931F93CF93DF9380910105882309F425
:1004F0004CC0813031F482E080930105C1ECD2E040
:1005000002C0C0E0D0E080910205882351F120971D
:1005100021F4C0910605D09107058E01CE010E94FD
:10052000CF00892B29F42196F80180818111F5CF24
:10053000F8018081882331F1C8010E94CF00F801C1
:10054000E80FF91F8081882311F010823196F09313
:100550000705E0930605902F812F90930405809363
:1005600005058091040590910505009771F021E043
:100570002093020520930305DF91CF911F910F91E6
:100580000C94880690E080E0E8CF1092030580E0AC
:1005900090E0DF91CF911F910F9108950E94830603
:1005A000CF92DF92EF92FF9288E191E00E940F02DA
:1005B00080910001811103C084E191E002C08DE9C6
:1005C00091E00E94210285E291E00E940F02C0901A
:1005D0007405D09075050D2C000CEE08FF08F7FE91
:1005E00014C0E0911B02F0911C020190F081E02DFB
:1005F0006DE28BE192E0099566277727CB016C19B4
:100600007D098E099F094AE003C04AE0C701B6018F
:100610000E942F0281E191E0FF90EF90DF90CF9058
:100620000C940F020E94700221E0892B09F420E053
:10063000209300010C94D0020E94700290937505E3
:1006400080937405009749F0893E23E0920710F0EB
:1006500088EE93E0A0E0B0E003C080E090E0DC0131
:100660008093170290931802A0931902B0931A0274
:100670000C94D0020C94D00286E391E00E942102F7
:1006800089E491E00E94210281E791E00E94210229
:1006900080EA91E00E940F024AE068EE73E080E099
:1006A00090E00E942F0281E191E00E940F028FEC06
:1006B00091E00C94210285EF91E00E9421020C94BC
:1006C0003C030C943C031F920F920FB60F9211241F
:1006D0002F933F934F935F936F937F938F939F934A
:1006E000AF93BF93EF93FF938BE192E00E9456018B
:1006F000FF91EF91BF91AF919F918F917F916F91FA
:100700005F914F913F912F910F900FBE0F901F90CF
:1007100018951F920F920FB60F9211242F938F935B
:100720009F93EF93FF93E0912B02F0912C02808135
:10073000E0913102F091320282FD12C090818091ED
:1007400034028F5F8F7320913502821751F0E09150
:100750003402F0E0E55EFD4F958F8093340201C0D6
:100760008081FF91EF919F918F912F910F900FBEFC
:100770000F901F9018951F920F920FB60F92112491
:100780002F933F938F939F93AF93BF9380911302C7
:1007900090911402A0911502B091160230910E02B0
:1007A00023E0230F2D3720F40196A11DB11D05C0B4
:1007B00026E8230F0296A11DB11D20930E028093FF
:1007C000130290931402A0931502B0931602809125
:1007D0000F0290911002A0911102B09112020196A5
:1007E000A11DB11D80930F0290931002A0931102DE
:1007F000B0931202BF91AF919F918F913F912F9132
:100800000F900FBE0F901F90189510921E0210921D
:100810001D0288EE93E0A0E0B0E080931F02909369
:100820002002A0932102B093220285E091E09093F0
:100830001C0280931B0285EC90E090932802809329
:10084000270284EC90E090932A028093290280ECA6
:1008500090E090932C0280932B0281EC90E0909397
:100860002E0280932D0282EC90E0909330028093D0
:100870002F0286EC90E09093320280933102109226
:100880003402109235021092360210923702809193
:10089000760590917705A0917805B0917905B69588
:1008A000A7959795879590937505809374051092F9
:1008B0000F0510920E058BE192E090930A0580934C
:1008C00009051092C0028CE280930C058BE38093A3
:1008D0000B058FE280930D0580E48093BB028FE3CC
:1008E0008093BC021092BA02109205051092040582
:1008F000109207051092060581E080930205E0E161
:10090000F5E01192119285E0E437F807D1F71092E3
:10091000BF020895789484B5826084BD84B58160F7
:1009200084BD85B5826085BD85B5816085BD8091BA
:100930006E00816080936E00109281008091810032
:10094000826080938100809181008160809381002A
:10095000809180008160809380008091B1008460EC
:100960008093B1008091B00081608093B00080914D
:100970007A00846080937A0080917A00826080930C
:100980007A0080917A00816080937A0080917A0069
:10099000806880937A001092C100E0912B02F09160
:1009A0002C0282E08083E0912702F09128021082DD
:1009B000E0912902F0912A0280E1808310923302B3
:1009C000E0912F02F091300286E08083E0912D02C9
:1009D000F0912E02808180618083E0912D02F09160
:1009E0002E02808188608083E0912D02F0912E029A
:1009F000808180688083E0912D02F0912E028081B9
:100A00008F7D808381E08093C0028BE593E090939B
:100A10000F0580930E0581E693E090931105809376
:100A2000100582E193E090931305809312058CE109
:100A300093E090931505809314058AE393E09093D7
:100A4000170580931605EDE9F0E02491E9E8F0E060
:100A50008491882399F090E0880F991FFC01E85950
:100A6000FF4FA591B491FC01EE58FF4F85919491F1
:100A70008FB7F894EC91E22BEC938FBF0E943C036C
:100A8000FF24F3948091BF028111D8C080910905A1
:100A900090910A05DC01ED91FC910480F581E02D37
:100AA0000995892B09F4CAC08091090590910A051E
:100AB000DC01ED91FC910480F581E02D0995811513
:100AC00092400CF0B8C08091090590910A05DC01B4
:100AD000ED91FC910480F581E02D09958C01C09188
:100AE0000905D0910A05C12CD12CC016D106A1F15F
:100AF0002FB7F8948091130290911402A0911502DF
:100B0000B09116022FBF88879987AA87BB87E88193
:100B1000F9810680F781E02DCE01099597FF1FC06E
:100B20002FB7F8948091130290911402A0911502AE
:100B3000B09116022FBF488559856A857B85841B35
:100B4000950BA60BB70B4C815D816E817F8184175D
:100B50009507A607B707D8F2C0E0D0E03DC0F60180
:100B6000EF5FFC4F8083BFEFCB1ADB0ABECFFE01E5
:100B7000EF5FFC4F90811092010580910D0521E0FF
:100B80003091BE02381320E0981751F19093BE02C5
:100B900030910B058091BA02E82FF0E0E854FD4F48
:100BA000931323C0211121C01186882321F0F092D4
:100BB00001051092BE021092BA0210920505109221
:100BC00004051092070510920605F0920205809127
:100BD0000105813099F02196C017D10741F652CF17
:100BE0002223A1F21092BE02D3CF91878F5F809310
:100BF000BA029091BC02891750F3DDCF0E947002B7
:100C00008093B902823378F420910305222359F0AE
:100C1000FC01FF27EE0FFF1FE05FFA4F0190F0810C
:100C2000E02D309731F4E0910E05F0910F053097EB
:100C300091F20995D0CF00E012E051CF0E94EA0175
:100C40008090760590907705A0907805B090790512
:100C5000DC01CB0188199909AA09BB09893E934097
:100C6000A105B10568F00E94EA01609376057093D2
:100C7000770580937805909379058091000116C0DF
:100C80000E94EA01DC01CB0188199909AA09BB0974
:100C900000911702109118022091190230911A0246
:100CA000081719072A073B0718F480E00E948700FD
:100CB0000E94E001E7CEA1E21A2EAA1BBB1BFD0198
:100CC0000DC0AA1FBB1FEE1FFF1FA217B307E4072B
:100CD000F50720F0A21BB30BE40BF50B661F771F83
:100CE000881F991F1A9469F7609570958095909563
:100CF0009B01AC01BD01CF010895EE0FFF1F0590D0
:100D0000F491E02D099481E090E0F8940C94AE0603
:100D1000FC0188279927E89421912032E9F32930B2
:100D200010F02E30C8F32B3241F02D3239F4689494
:100D300004C00E94A606820F911D219120532A30E3
:100D4000C0F31EF4909581959F4F08957AE0979F88
:100D5000902D879F802D910D11240895F894FFCF39
:100D600001000000007701F30040011E013201BEC6
:100D7000010D0A006F6666004C656420737461742F
:100D800075733A20004C6564206272696768746EFE
:100D90006573733A2000417661696C61626C65200D
:100DA000636F6D6D616E64730020303B20202020E6
:100DB000202020202020202020202020202D2054F2
:100DC00068697320636F6D6D616E64206C69737404
:100DD0000020312C3C6C65642073746174653E3B6B
:100DE00020202020202D20536574206C65642E2047
:100DF00030203D206F66662C2031203D206F6E0034
:100E000020322C3C6C6564206272696768746E6580
:100E100073733E3B202D20536574206C6564206203
:100E2000726967686E6573732E2030202D20002054
:100E3000333B202020202020202020202020202084
:100E4000202020202D2053686F77206C656420734C
:100E500074617465005468697320636F6D6D616EB1
:0E0E60006420697320756E6B6E6F776E2100D3
:00000001FF
