:100000000C9462000C948A000C948A000C948A0070
:100010000C948A000C948A000C948A000C948A0038
:100020000C948A000C948A000C948A000C948A0028
:100030000C948A000C948A000C948A000C948A0018
:100040000C94D6040C948A000C94A4040C947E04A2
:100050000C948A000C948A000C948A000C948A00F8
:100060000C948A000C948A000000000023002600F3
:10007000290000000000240027002A0000000000E2
:10008000250028002B0004040404040404040202D4
:100090000202020203030303030301020408102007
:1000A0004080010204081020010204081020000012
:1000B0000008000201000003040700000000000027
:1000C0000000200511241FBECFEFD8E0DEBFCDBF5A
:1000D00012E0A0E0B1E0EEEDFEE002C005900D926E
:1000E000A035B107D9F725E0A0E5B2E001C01D9227
:1000F000A83BB207E1F710E0C2E6D0E004C02197C8
:10010000FE010E943C07C136D107C9F70E9499053C
:100110000C946D070C940000AC011092FF0220912A
:100120004F0580914E05FA01BF01641B750B91E0EC
:100130003091FF02321390E03081321719F0309382
:10014000FF0204C09923D9F31092FF0231913111BB
:1001500004C09111E9CFCB0108953813E5CFF9CF51
:10016000CF92DF92EF92FF920F931F93CF93DF9383
:100170006C017A018B01C0E0D0E0CE15DF0589F07B
:10018000D8016D918D01D601ED91FC910190F08126
:10019000E02DC6010995892B11F47E0102C021963C
:1001A000ECCFC701DF91CF911F910F91FF90EF909E
:1001B000DF90CF900895FC01918D828D981761F0AA
:1001C000828DDF01A80FB11D5D968C91928D9F5F8E
:1001D0009F73928F90E008958FEF9FEF0895FC0139
:1001E000918D828D981731F0828DE80FF11D858DEC
:1001F00090E008958FEF9FEF0895FC01918D228D7F
:10020000892F90E0805C9F4F821B91098F73992703
:1002100008958DE592E00E94FD0021E0892B09F40C
:1002200020E0822F0895FC01848DDF01A80FB11D0D
:10023000A35ABF4F2C91848D90E001968F7399271C
:10024000848FA689B7892C93A089B1898C91806409
:100250008C93938D848D981306C00288F389E02DCA
:1002600080818F7D80830895EF92FF920F931F937B
:10027000CF93DF93EC0181E0888F9B8D8C8D981359
:1002800005C0E889F989808185FD24C0F62E0B8D93
:1002900010E00F5F1F4F0F731127E02E8C8DE812B7
:1002A0000CC00FB607FCFACFE889F989808185FF79
:1002B000F5CFCE010E941301F1CF8B8DFE01E80F27
:1002C000F11DE35AFF4FF0820B8FEA89FB89808191
:1002D000806207C0EE89FF896083E889F98980819F
:1002E0008064808381E090E0DF91CF911F910F9136
:1002F000FF90EF900895CF93DF93EC01888D8823D2
:10030000C9F0EA89FB89808185FD05C0A889B98982
:100310008C9186FD0FC00FB607FCF5CF808185FF5D
:10032000F2CFA889B9898C9185FFEDCFCE010E94CB
:100330001301E7CFDF91CF91089580E090E0892B02
:1003400029F00E94090181110C9400000895833066
:1003500081F028F4813099F08230A1F0089587303F
:10036000A9F08830B9F08430D1F4809180008F7D7D
:1003700003C0809180008F7780938000089584B5BA
:100380008F7702C084B58F7D84BD08958091B000C1
:100390008F7703C08091B0008F7D8093B000089567
:1003A0001F93CF93DF93282F30E0F901E255FF4FE1
:1003B0008491F901E656FF4FD491F901EA57FF4FB6
:1003C000C491CC23C9F0162F81110E94A701EC2FF4
:1003D000F0E0EE0FFF1FE458FF4FA591B4918FB7E7
:1003E000F894111105C09C91ED2FE095E92302C00E
:1003F000EC91ED2BEC938FBFDF91CF911F9108957E
:10040000CF93DF9390E0FC01E656FF4F2491FC016F
:10041000EA57FF4F8491882361F190E0880F991F7C
:10042000FC01EE58FF4FC591D491FC01E458FF4FF9
:10043000A591B491611109C09FB7F8948881209566
:1004400082238883EC912E230BC0623061F49FB726
:10045000F8943881822F809583238883EC912E2B0A
:100460002C939FBF06C08FB7F894E8812E2B28836A
:100470008FBFDF91CF910895009769F0FC01019043
:100480000020E9F73197AF01481B590BBC018DE5FE
:1004900092E00C94B00080E090E00895CF93DF9359
:1004A0000E943C02EC0183E191E00E943C028C0F2F
:1004B0009D1FDF91CF9108958F929F92AF92BF922F
:1004C0000F931F93CF93DF93CDB7DEB7A1970FB6EE
:1004D000F894DEBF0FBECDBF19A2423008F44AE047
:1004E0008E010F5D1F4F842E912CA12CB12CA501E4
:1004F00094010E941A07E62FB901CA01015011099F
:10050000EA3014F4E05D01C0E95CD801EC93232BE0
:10051000242B252B61F7C8010E943C02A1960FB63F
:10052000F894DEBF0FBECDBFDF91CF911F910F9129
:10053000BF90AF909F908F900895CF92DF92EF92EF
:10054000FF92CF93DF936C01990FEE08FF08F7FE3F
:100550001AC0E0915D02F0915E020190F081E02D01
:100560006DE28DE592E00995EC0166277727CB01D6
:100570006C197D098E099F094AE00E945C027C018A
:10058000EC0EFD1E06C04AE0C701B6010E945C02E7
:100590007C0183E191E00E943C028E0D9F1DDF9162
:1005A000CF91FF90EF90DF90CF9008958AE191E096
:1005B0000E943C0280910101909102010E949D02E3
:1005C00087E291E00E943C0280910001811103C00A
:1005D00086E191E002C08BED91E00E944E0284E33F
:1005E00091E00E943C028091B6059091B7050C9471
:1005F0009D020C94D60285E491E00E944E0288E5AB
:1006000091E00E944E0280E891E00E944E0286EA4C
:1006100091E00E944E028EED91E00E943C024AE081
:1006200068EE73E080E090E00E945C0283E191E07C
:100630000E943C0280E192E00C944E0286E392E03C
:100640000E944E020C94FB020C94FB020F931F932A
:10065000CF93DF9380914305882309F44CC0813008
:1006600031F482E080934305C3E0D3E002C0C0E0F0
:10067000D0E080914405882351F1209721F4C09166
:100680004805D09149058E01CE010E948C00892B2E
:1006900029F42196F80180818111F5CFF80180813C
:1006A000882331F1C8010E948C00F801E80FF91F7E
:1006B0008081882311F010823196F0934905E093F0
:1006C0004805902F812F9093460580934705809190
:1006D000460590914705009771F021E0209344056D
:1006E00020934505DF91CF911F910F910C944707FF
:1006F00090E080E0E8CF1092450580E090E0DF9147
:10070000CF911F910F910895FF920F931F93CF9355
:10071000DF930E942603EC01909302018093010174
:10072000082F60E00E9400029E013327F901E25584
:10073000FF4F8491F901E656FF4FF490F901EA5713
:10074000FF4F1491112379F081110E94A701E12F2D
:10075000F0E0EE0FFF1FE859FF4FA591B491EC9127
:10076000EF2181E009F480E08170809300010E3078
:1007700010F00C2F0E500770006400937C008091E5
:100780007A00806480937A0080917A0086FDFCCFA5
:10079000809178002091790090E0922B9093B7059A
:1007A0008093B605DF91CF911F910F91FF900C942C
:1007B000D6020F931F93CF93DF930E942603EC0181
:1007C0009093B7058093B605009101011091020145
:1007D00061E0802F0E94000261E0802F0E940002F1
:1007E000209709F447C0CF3FD10509F445C0F8016F
:1007F000FF27E255FF4FE491E330F9F048F4E13090
:10080000B9F0E230A1F584B5806284BDC8BD38C0BE
:10081000E730E9F0E83019F1E43049F580918000E3
:10082000806280938000D0938B00C0938A0028C0A0
:1008300084B5806884BDC7BD23C080918000806876
:1008400080938000D0938900C093880019C0809164
:10085000B00080688093B000C093B30011C0809155
:10086000B00080628093B000C093B40009C0C0386B
:10087000D10514F460E001C061E0802F0E94D00136
:100880008091B6059091B705009749F0893E23E025
:10089000920710F088EE93E0A0E0B0E003C080E0A3
:1008A00090E0DC018093500290935102A093520299
:1008B000B0935302DF91CF911F910F910C94D60208
:1008C000CF93DF930E942603D1E0892B09F4D0E077
:1008D000D0930001C091010161E08C2F0E940002C1
:1008E000DD2311F061E001C060E08C2F0E94D00197
:1008F000DF91CF910C94D6020E9442071F920F9273
:100900000FB60F9211242F933F934F935F936F93E2
:100910007F938F939F93AF93BF93EF93FF938DE557
:1009200092E00E941301FF91EF91BF91AF919F91CF
:100930008F917F916F915F914F913F912F910F9088
:100940000FBE0F901F9018951F920F920FB60F9227
:1009500011242F938F939F93EF93FF93E0916D0258
:10096000F0916E028081E0917302F091740282FD39
:1009700012C09081809176028F5F8F7320917702F1
:10098000821751F0E0917602F0E0E35AFD4F958F27
:100990008093760201C08081FF91EF919F918F91AA
:1009A0002F910F900FBE0F901F9018951F920F92CE
:1009B0000FB60F9211242F933F938F939F93AF9372
:1009C000BF938091590290915A02A0915B02B0911D
:1009D0005C023091580223E0230F2D3720F401965A
:1009E000A11DB11D05C026E8230F0296A11DB11D52
:1009F000209358028093590290935A02A0935B026D
:100A0000B0935C028091540290915502A0915602DD
:100A1000B09157020196A11DB11D8093540290938D
:100A20005502A0935602B0935702BF91AF919F9188
:100A30008F913F912F910F900FBE0F901F9018959F
:100A40001092600210925F0288EE93E0A0E0B0E0A6
:100A50008093610290936202A0936302B093640258
:100A600087E091E090935E0280935D0285EC90E0D8
:100A700090936A028093690284EC90E090936C02F8
:100A800080936B0280EC90E090936E0280936D02F5
:100A900081EC90E09093700280936F0282EC90E082
:100AA000909372028093710286EC90E090937402AE
:100AB000809373021092760210927702109278025D
:100AC000109279021092B7051092B6051092510556
:100AD000109250058DE592E090934C0580934B0564
:100AE000109202038CE280934E058BE380934D05B8
:100AF0008FE280934F0580E48093FD028FE3809323
:100B0000FE021092FC0210924705109246051092C8
:100B100049051092480581E080934405E2E5F5E03F
:100B20001192119285E0E63BF807D1F7109201038C
:100B30000895789484B5826084BD84B5816084BD55
:100B400085B5826085BD85B5816085BD80916E006B
:100B5000816080936E00109281008091810082609C
:100B600080938100809181008160809381008091D9
:100B700080008160809380008091B10084608093C8
:100B8000B1008091B00081608093B00080917A00C4
:100B9000846080937A0080917A00826080937A00EA
:100BA00080917A00816080937A0080917A008068D9
:100BB00080937A001092C100E0916D02F0916E0274
:100BC00082E08083E0916902F0916A021082E091F4
:100BD0006B02F0916C0280E1808310927502E091CB
:100BE0007102F091720286E08083E0916F02F091D1
:100BF0007002808180618083E0916F02F0917002C9
:100C0000808188608083E0916F02F0917002808122
:100C100080688083E0916F02F091700280818F7D07
:100C2000808381E0809302038EE193E090935105ED
:100C30008093500584E293E090935305809352058E
:100C400084E893E0909355058093540580E694E002
:100C5000909357058093560589ED93E0909359053D
:100C60008093580589EF92E090935B0580935A0535
:100C70000E94FB02FF24F3948091010381110DC0B7
:100C800080914B0590914C05DC01ED91FC91048025
:100C9000F581E02D0995892B19F40E949D01ECCF77
:100CA00080914B0590914C05DC01ED91FC91048005
:100CB000F581E02D0995811592400CF0B8C0809126
:100CC0004B0590914C05DC01ED91FC910480F58180
:100CD000E02D09958C01C0914B05D0914C05C12C9C
:100CE000D12CC016D106A1F12FB7F89480915902EA
:100CF00090915A02A0915B02B0915C022FBF88874D
:100D00009987AA87BB87E881F9810680F781E02D62
:100D1000CE01099597FF1FC02FB7F8948091590213
:100D200090915A02A0915B02B0915C022FBF48855E
:100D300059856A857B85841B950BA60BB70B4C8167
:100D40005D816E817F8184179507A607B707D8F26A
:100D5000C0E0D0E03DC0F601ED5BFC4F8083BFEF0B
:100D6000CB1ADB0ABECFFE01ED5BFC4F90811092E7
:100D7000430580914F0521E030910003381320E0B6
:100D8000981751F19093000330914D058091FC022A
:100D9000E82FF0E0E650FD4F931323C0211121C04E
:100DA0001186882321F0F0924305109200031092DF
:100DB000FC021092470510924605109249051092C8
:100DC0004805F092440580914305813099F02196C1
:100DD000C017D10741F650CF2223A1F21092000391
:100DE000D3CF91878F5F8093FC029091FE02891789
:100DF00050F3DDCF0E9426038093FB02823378F408
:100E000020914505222359F0FC01FF27EE0FFF1F1B
:100E1000EE5AFA4F0190F081E02D309731F4E091D5
:100E20005005F0915105309791F20995D0CF00E02F
:100E300012E051CFA1E21A2EAA1BBB1BFD010DC06F
:100E4000AA1FBB1FEE1FFF1FA217B307E407F5077A
:100E500020F0A21BB30BE40BF50B661F771F881F56
:100E6000991F1A9469F760957095809590959B01EC
:100E7000AC01BD01CF010895EE0FFF1F0590F49165
:100E8000E02D099481E090E0F8940C946D07FC014A
:100E900088279927E89421912032E9F3293010F02E
:100EA0002E30C8F32B3241F02D3239F4689404C04F
:100EB0000E946507820F911D219120532A30C0F3B3
:100EC0001EF4909581959F4F08957AE0979F902DFD
:0E0ED000879F802D910D11240895F894FFCF77
:100EDE00010300000000003401B000FD00DB00EF54
:100EEE00007B010D0A006F66660050696E206E75FC
:100EFE006D6265723A090050696E20737461747583
:100F0E00733A090050696E206272696768746E6583
:100F1E0073733A0900417661696C61626C65206396
:100F2E006F6D6D616E64730020303B202020202099
:100F3E002020202020202020202020202D2054681A
:100F4E00697320636F6D6D616E64206C69737400DC
:100F5E0020312C3C70696E206E756D6265723E3B61
:100F6E0020202020202D205365742070696E206E65
:100F7E00756D6265720020322C3C70696E20737440
:100F8E006174653E3B20202020202D205365742067
:100F9E0070696E2076616C7565202D2D3E20302097
:100FAE003D206F66662C2031203D206F6E00203371
:100FBE002C3C70696E206272696768746E6573731B
:100FCE003E3B202D205365742070696E206272693D
:100FDE0067686E657373202D2D3E2030202D200006
:100FEE0020343B20202020202020202020202020C4
:100FFE0020202020202D2053686F772070696E20CE
:10100E007374617465005468697320636F6D6D61EC
:10101E006E6420697320756E6B6E6F776E210000A3
:00000001FF
