:100000000C9462000C948A000C948A000C948A0070
:100010000C948A000C948A000C948A000C948A0038
:100020000C948A000C948A000C948A000C948A0028
:100030000C948A000C948A000C948A000C948A0018
:100040000C94DD040C948A000C94AB040C9485048D
:100050000C948A000C948A000C948A000C948A00F8
:100060000C948A000C948A000000000023002600F3
:10007000290000000000240027002A0000000000E2
:10008000250028002B0004040404040404040202D4
:100090000202020203030303030301020408102007
:1000A0004080010204081020010204081020000012
:1000B0000008000201000003040700000000000027
:1000C0000000270511241FBECFEFD8E0DEBFCDBF53
:1000D00012E0A0E0B1E0E8EFFEE002C005900D9272
:1000E000A437B107D9F725E0A4E7B2E001C01D921B
:1000F000AC3DB207E1F710E0C2E6D0E004C02197C2
:10010000FE010E944907C136D107C9F70E94A00528
:100110000C947A070C940000AC01109223032091F8
:10012000730580917205FA01BF01641B750B91E0A4
:1001300030912303321390E03081321719F030935D
:10014000230304C09923D9F3109223033191311171
:1001500004C09111E9CFCB0108953813E5CFF9CF51
:10016000CF92DF92EF92FF920F931F93CF93DF9383
:100170006C017A018B01C0E0D0E0CE15DF0589F07B
:10018000D8016D918D01D601ED91FC910190F08126
:10019000E02DC6010995892B11F47E0102C021963C
:1001A000ECCFC701DF91CF911F910F91FF90EF909E
:1001B000DF90CF900895E0E0F0E00994FC01918D8C
:1001C000828D981761F0828DDF01A80FB11D5D96B9
:1001D0008C91928D9F5F9F73928F90E008958FEF27
:1001E0009FEF0895FC01918D828D981731F0828DDB
:1001F000E80FF11D858D90E008958FEF9FEF089532
:10020000FC01918D228D892F90E0805C9F4F821B95
:1002100091098F739927089581E892E00E94000167
:1002200021E0892B09F420E0822F0895FC01848DC0
:10023000DF01A80FB11DA35ABF4F2C91848D90E010
:1002400001968F739927848FA689B7892C93A089EB
:10025000B1898C9180648C93938D848D981306C0A2
:100260000288F389E02D80818F7D80830895EF924D
:10027000FF920F931F93CF93DF93EC0181E0888F60
:100280009B8D8C8D981305C0E889F989808185FD47
:1002900024C0F62E0B8D10E00F5F1F4F0F73112738
:1002A000E02E8C8DE8120CC00FB607FCFACFE8895F
:1002B000F989808185FFF5CFCE010E941601F1CF2B
:1002C0008B8DFE01E80FF11DE35AFF4FF0820B8F7B
:1002D000EA89FB898081806207C0EE89FF8960839B
:1002E000E889F98980818064808381E090E0DF91F2
:1002F000CF911F910F91FF90EF900895CF93DF93CF
:10030000EC01888D8823C9F0EA89FB89808185FD0D
:1003100005C0A889B9898C9186FD0FC00FB607FC6E
:10032000F5CF808185FFF2CFA889B9898C9185FFAF
:10033000EDCFCE010E941601E7CFDF91CF91089556
:1003400080E090E0892B29F00E940C0181110C942F
:1003500000000895833081F028F4813099F08230D4
:10036000A1F008958730A9F08830B9F08430D1F435
:10037000809180008F7D03C0809180008F77809373
:100380008000089584B58F7702C084B58F7D84BDC9
:1003900008958091B0008F7703C08091B0008F7D69
:1003A0008093B00008951F93CF93DF93282F30E000
:1003B000F901E255FF4F8491F901E656FF4FD491C0
:1003C000F901EA57FF4FC491CC23C9F0162F8111D0
:1003D0000E94AA01EC2FF0E0EE0FFF1FE458FF4F40
:1003E000A591B4918FB7F894111105C09C91ED2F90
:1003F000E095E92302C0EC91ED2BEC938FBFDF91E8
:10040000CF911F910895CF93DF9390E0FC01E656C2
:10041000FF4F2491FC01EA57FF4F8491882361F13B
:1004200090E0880F991FFC01EE58FF4FC591D491C1
:10043000FC01E458FF4FA591B491611109C09FB729
:10044000F8948881209582238883EC912E230BC019
:10045000623061F49FB7F8943881822F80958323AE
:100460008883EC912E2B2C939FBF06C08FB7F894F6
:10047000E8812E2B28838FBFDF91CF9108950097BD
:1004800069F0FC0101900020E9F73197AF01481BAA
:10049000590BBC0181E892E00C94B00080E090E040
:1004A0000895CF93DF930E943F02EC0183E191E036
:1004B0000E943F028C0F9D1FDF91CF9108958F9274
:1004C0009F92AF92BF920F931F93CF93DF93CDB7BD
:1004D000DEB7A1970FB6F894DEBF0FBECDBF19A24D
:1004E000423008F44AE08E010F5D1F4F842E912C9C
:1004F000A12CB12CA50194010E942707E62FB90178
:10050000CA0101501109EA3014F4E05D01C0E95C50
:10051000D801EC93232B242B252B61F7C8010E94D3
:100520003F02A1960FB6F894DEBF0FBECDBFDF919C
:10053000CF911F910F91BF90AF909F908F90089592
:10054000CF92DF92EF92FF92CF93DF936C01990FDE
:10055000EE08FF08F7FE1AC0E0918102F0918202D6
:100560000190F081E02D6DE281E892E00995EC01C7
:1005700066277727CB016C197D098E099F094AE010
:100580000E945F027C01EC0EFD1E06C04AE0C7011E
:10059000B6010E945F027C0183E191E00E943F026C
:1005A0008E0D9F1DDF91CF91FF90EF90DF90CF9048
:1005B00008958AE191E00E943F02809101019091AB
:1005C00002010E94A00287E291E00E943F02809116
:1005D0000001811103C086E191E002C08BED91E042
:1005E0000E94510284E391E00E943F028091DA056B
:1005F0009091DB050C94A0020C94D90285E491E063
:100600000E94510288E591E00E94510280E891E049
:100610000E94510286EA91E00E9451028EED91E023
:100620000E943F024AE068EE73E080E090E00E94A2
:100630005F0283E191E00E943F0280E192E00E942C
:10064000510286E392E00C9451028BE592E00E9405
:1006500051020C94FE020C94FE020F931F93CF9351
:10066000DF9380916705882309F44CC0813031F411
:1006700082E080936705C7E2D3E002C0C0E0D0E02B
:1006800080916805882351F1209721F4C0916C0571
:10069000D0916D058E01CE010E948C00892B29F42A
:1006A0002196F80180818111F5CFF801808188239E
:1006B00031F1C8010E948C00F801E80FF91F808118
:1006C000882311F010823196F0936D05E0936C054C
:1006D000902F812F90936A0580936B0580916A0516
:1006E00090916B05009771F021E0209368052093AD
:1006F0006905DF91CF911F910F910C94540790E001
:1007000080E0E8CF1092690580E090E0DF91CF9122
:100710001F910F910895FF920F931F93CF93DF9333
:100720000E942D03EC019093020180930101082F98
:1007300060E00E9403029E013327F901E255FF4F5A
:100740008491F901E656FF4FF490F901EA57FF4F03
:100750001491112379F081110E94AA01E12FF0E098
:10076000EE0FFF1FE859FF4FA591B491EC91EF21D7
:1007700081E009F480E08170809300010E3010F078
:100780000C2F0E500770006400937C0080917A005B
:10079000806480937A0080917A0086FDFCCF8091FE
:1007A00078002091790090E0922B9093DB05809364
:1007B000DA05DF91CF911F910F91FF900C94D90230
:1007C0000F931F93CF93DF930E942D03EC0190931F
:1007D000DB058093DA05009101011091020161E0CF
:1007E000802F0E94030261E0802F0E940302209765
:1007F00009F447C0CF3FD10509F445C0F801FF27F0
:10080000E255FF4FE491E330F9F048F4E130B9F0FC
:10081000E230A1F584B5806284BDC8BD38C0E73040
:10082000E9F0E83019F1E43049F580918000806208
:1008300080938000D0938B00C0938A0028C084B539
:10084000806884BDC7BD23C080918000806880938C
:100850008000D0938900C093880019C08091B000B7
:1008600080688093B000C093B30011C08091B00045
:1008700080628093B000C093B40009C0C038D10535
:1008800014F460E001C061E0802F0E94D3018091E8
:10089000DA059091DB05009749F0893E23E0920745
:1008A00010F088EE93E0A0E0B0E003C080E090E0BC
:1008B000DC018093740290937502A0937602B0934A
:1008C0007702DF91CF911F910F910C94D902CF93B2
:1008D000DF930E942D03D1E0892B09F4D0E0D0935F
:1008E0000001C091010161E08C2F0E940302DD2311
:1008F00011F061E001C060E08C2F0E94D301DF9114
:10090000CF910C94D9020E944F071F920F920FB6FD
:100910000F9211242F933F934F935F936F937F9385
:100920008F939F93AF93BF93EF93FF9381E892E0F0
:100930000E941601FF91EF91BF91AF919F918F910E
:100940007F916F915F914F913F912F910F900FBECB
:100950000F901F9018951F920F920FB60F921124AF
:100960002F938F939F93EF93FF93E0919102F091D8
:1009700092028081E0919702F091980282FD12C06C
:10098000908180919A028F5F8F7320919B028217D2
:1009900051F0E0919A02F0E0EF57FD4F958F809370
:1009A0009A0201C08081FF91EF919F918F912F91C9
:1009B0000F900FBE0F901F9018951F920F920FB6B9
:1009C0000F9211242F933F938F939F93AF93BF93D5
:1009D00080917D0290917E02A0917F02B091800271
:1009E00030917C0223E0230F2D3720F40196A11DC6
:1009F000B11D05C026E8230F0296A11DB11D20934D
:100A00007C0280937D0290937E02A0937F02B0933C
:100A100080028091780290917902A0917A02B0913F
:100A20007B020196A11DB11D8093780290937902FB
:100A3000A0937A02B0937B02BF91AF919F918F9167
:100A40003F912F910F900FBE0F901F90189510920D
:100A500084021092830288EE93E0A0E0B0E08093DD
:100A6000850290938602A0938702B093880287E064
:100A700091E0909382028093810285EC90E09093C4
:100A80008E0280938D0284EC90E09093900280938C
:100A90008F0280EC90E0909392028093910281EC1F
:100AA00090E0909394028093930282EC90E0909374
:100AB00096028093950286EC90E090939802809342
:100AC000970210929A0210929B0210929C0210922E
:100AD0009D021092DB051092DA05109275051092B6
:100AE000740581E892E09093700580936F051092F1
:100AF00026038CE2809372058BE3809371058FE26D
:100B00008093730580E4809321038FE38093220315
:100B10001092200310926B0510926A0510926D05D9
:100B200010926C0581E080936805E6E7F5E011928C
:100B3000119285E0EA3DF807D1F710922503089558
:100B4000789484B5826084BD84B5816084BD85B5A8
:100B5000826085BD85B5816085BD80916E008160B4
:100B600080936E001092810080918100826080935A
:100B7000810080918100816080938100809180005C
:100B80008160809380008091B10084608093B10087
:100B90008091B00081608093B00080917A00846081
:100BA00080937A0080917A00826080937A008091AD
:100BB0007A00816080937A0080917A0080688093C7
:100BC0007A001092C100E0919102F091920282E0CD
:100BD0008083E0918D02F0918E021082E0918F026D
:100BE000F091900280E1808310929902E091950249
:100BF000F091960286E08083E0919302F091940256
:100C0000808180618083E0919302F09194028081E1
:100C100088608083E0919302F091940280818068E3
:100C20008083E0919302F091940280818F7D808394
:100C300081E08093260385E293E09093750580938D
:100C400074058BE293E090937705809376058BE8AB
:100C500093E0909379058093780587E694E09093EC
:100C60007B0580937A0580EE93E090937D058093D9
:100C70007C058CEF92E090937F0580937E058BED51
:100C800090E090938105809380050E94FE02FF24EE
:100C9000F3948091250381110DC080916F0590918F
:100CA0007005DC01ED91FC910480F581E02D099542
:100CB000892B19F40E94A001ECCF80916F059091CF
:100CC0007005DC01ED91FC910480F581E02D099522
:100CD000811592400CF0B8C080916F05909170051D
:100CE000DC01ED91FC910480F581E02D09958C01EA
:100CF000C0916F05D0917005C12CD12CC016D106C2
:100D0000A1F12FB7F89480917D0290917E02A0917D
:100D10007F02B09180022FBF88879987AA87BB87FF
:100D2000E881F9810680F781E02DCE01099597FFD2
:100D30001FC02FB7F89480917D0290917E02A09100
:100D40007F02B09180022FBF488559856A857B85D7
:100D5000841B950BA60BB70B4C815D816E817F8147
:100D600084179507A607B707D8F2C0E0D0E03DC0CA
:100D7000F601E959FC4F8083BFEFCB1ADB0ABECFE7
:100D8000FE01E959FC4F908110926705809173052F
:100D900021E030912403381320E0981751F190930B
:100DA00024033091710580912003E82FF0E0E25E8A
:100DB000FC4F931323C0211121C01186882321F0F9
:100DC000F0926705109224031092200310926B0595
:100DD00010926A0510926D0510926C05F0926805EC
:100DE00080916705813099F02196C017D10741F6AF
:100DF00050CF2223A1F210922403D3CF91878F5F8B
:100E00008093200390912203891750F3DDCF0E9435
:100E10002D0380931F03823378F4209169052223E8
:100E200059F0FC01FF27EE0FFF1FEA58FA4F01901F
:100E3000F081E02D309731F4E0917405F091750563
:100E4000309791F20995D0CF00E012E051CFA1E2A6
:100E50001A2EAA1BBB1BFD010DC0AA1FBB1FEE1F34
:100E6000FF1FA217B307E407F50720F0A21BB30B7F
:100E7000E40BF50B661F771F881F991F1A9469F7FB
:100E800060957095809590959B01AC01BD01CF0157
:100E90000895EE0FFF1F0590F491E02D099481E075
:100EA00090E0F8940C947A07FC0188279927E8943D
:100EB00021912032E9F3293010F02E30C8F32B3283
:100EC00041F02D3239F4689404C00E947207820FF9
:100ED000911D219120532A30C0F31EF490958195E5
:100EE0009F4F08957AE0979F902D879F802D910DB9
:080EF00011240895F894FFCFCE
:100EF800010300000000003701B0000001DE00F22D
:100F0800007E010D0A006F66660050696E206E75DE
:100F18006D6265723A090050696E20737461747568
:100F2800733A090050696E206272696768746E6569
:100F380073733A0900417661696C61626C6520637C
:100F48006F6D6D616E64730020303B20202020207F
:100F58002020202020202020202020202D20546800
:100F6800697320636F6D6D616E64206C69737400C2
:100F780020312C3C70696E206E756D6265723E3B47
:100F880020202020202D205365742070696E206E4B
:100F9800756D6265720020322C3C70696E20737426
:100FA8006174653E3B20202020202D20536574204D
:100FB80070696E2076616C7565202D2D3E2030207D
:100FC8003D206F66662C2031203D206F6E00203357
:100FD8002C3C70696E206272696768746E65737301
:100FE8003E3B202D205365742070696E2062726923
:100FF80067686E657373202D2D3E2030202D2000EC
:1010080020343B20202020202020202020202020A9
:1010180020202020202D2053686F772070696E20B3
:1010280073746174650020353B2020202020202027
:1010380020202020202020202020202D20526573D1
:1010480065742041726475696E6F00546869732015
:10105800636F6D6D616E6420697320756E6B6E6F62
:04106800776E21007E
:00000001FF
